:1000000009C016C030C114C013C012C015C110C041
:100010000FC00EC011241FBECFE9CDBF20E0A0E667
:10002000B0E001C01D92A436B207E1F710D02CC198
:10003000E7CFF894809160009091610078940895E2
:10004000F89410926100109260007894089583E013
:1000500088BB87BB15BE88E085BB80E28ABF8BBFAB
:1000600012BE8EE786BF19BC82E08FBD83BF84E0DD
:1000700089BF88B3836088BB78946894FF24F2F8C2
:100080000F2EF3E0AF2EF02D6894BB24B1F8CC24F2
:10009000C394D12CE12C80916300823009F47DC09F
:1000A00030F4882359F0813009F44FC0F6CF833003
:1000B00009F499C0843009F4A3C0EFCFB39BFECFFD
:1000C00087E99AE30197F1F700C00000B49B12C0E2
:1000D000B29910C08FE697E10197F1F700C00000D8
:1000E000B49B08C0B29906C0C0926300C098109239
:1000F0006200A6DFB29B12C0B49910C08FE697E1F0
:100100000197F1F700C00000B29B08C0B49906C087
:10011000B0926300C1981092620092DFB49BBBCF93
:10012000B29BB9CF8FE697E10197F1F700C00000CD
:10013000B49BB1CFB29BAFCFA092630088B38C7F4A
:1001400088BB109262007CDFA6CFB39B08C086B349
:1001500082FB882780F9C82F90E0D92F02C0CD2DCF
:10016000DE2D8BED95E00197F1F700C00000B39B09
:1001700058C0B29B56C0CE01817099272091620071
:10018000253038F4892B29F454DF8938934108F459
:1001900082CFF092630054DF7ECFB39B06C086B35C
:1001A00084FB002700F910E002C00D2D1E2D8BED01
:1001B00095E00197F1F700C00000B39B38C0B49BF5
:1001C00036C0C8018170992720916200253038F42B
:1001D000892B29F42EDF8938934108F45CCFF09203
:1001E00063002EDF58CF80916200833028F421DF36
:1001F0008938934108F44FCFF092630021DF4BCF51
:1002000088B3836088BB06C0B49903C0B29901C0AB
:10021000B39916DF0EDF8A3F9105B0F310926300A9
:100220003ACF80916200853008F0B3CFADCF809196
:1002300062008530A0F6CECF1F920F920FB60F92BC
:1002400011248F939F93809160009091610001969B
:1002500090936100809360009F918F910F900FBEEB
:100260000F901F9018951F920F920FB60F921124A6
:100270008F93809162008F5F809362008F910F90C7
:0C0280000FBE0F901F901895F894FFCF50
:00000001FF
